{
  "_format": "hh-sol-artifact-1",
  "contractName": "Lottery",
  "sourceName": "contracts/Lottery.sol",
  "abi": [
    {
      "inputs": [],
      "stateMutability": "nonpayable",
      "type": "constructor"
    },
    {
      "anonymous": false,
      "inputs": [
        {
          "indexed": false,
          "internalType": "address",
          "name": "winner",
          "type": "address"
        }
      ],
      "name": "announceWinner",
      "type": "event"
    },
    {
      "anonymous": false,
      "inputs": [
        {
          "indexed": false,
          "internalType": "address",
          "name": "player",
          "type": "address"
        }
      ],
      "name": "enteredLottery",
      "type": "event"
    },
    {
      "inputs": [],
      "name": "endTime",
      "outputs": [
        {
          "internalType": "uint256",
          "name": "",
          "type": "uint256"
        }
      ],
      "stateMutability": "view",
      "type": "function"
    },
    {
      "inputs": [],
      "name": "playerCount",
      "outputs": [
        {
          "internalType": "uint256",
          "name": "",
          "type": "uint256"
        }
      ],
      "stateMutability": "view",
      "type": "function"
    },
    {
      "inputs": [],
      "name": "purchaseTicket",
      "outputs": [],
      "stateMutability": "payable",
      "type": "function"
    },
    {
      "inputs": [],
      "name": "selectWinner",
      "outputs": [],
      "stateMutability": "payable",
      "type": "function"
    }
  ],
  "bytecode": "0x608060405234801561001057600080fd5b506107084261001f91906100a3565b600181905550336000806101000a81548173ffffffffffffffffffffffffffffffffffffffff021916908373ffffffffffffffffffffffffffffffffffffffff1602179055506100d7565b6000819050919050565b7f4e487b7100000000000000000000000000000000000000000000000000000000600052601160045260246000fd5b60006100ae8261006a565b91506100b98361006a565b92508282019050808211156100d1576100d0610074565b5b92915050565b610adc806100e66000396000f3fe60806040526004361061003f5760003560e01c806321846c7614610044578063302bcc571461004e5780633197cbb61461007957806333a99e04146100a4575b600080fd5b61004c6100ae565b005b34801561005a57600080fd5b506100636102c9565b60405161007091906105ae565b60405180910390f35b34801561008557600080fd5b5061008e6102cf565b60405161009b91906105ae565b60405180910390f35b6100ac6102d5565b005b6001544211156100f3576040517f08c379a00000000000000000000000000000000000000000000000000000000081526004016100ea90610626565b60405180910390fd5b670de0b6b3a7640000341461013d576040517f08c379a000000000000000000000000000000000000000000000000000000000815260040161013490610692565b60405180910390fd5b60008054906101000a900473ffffffffffffffffffffffffffffffffffffffff1673ffffffffffffffffffffffffffffffffffffffff163373ffffffffffffffffffffffffffffffffffffffff16036101cb576040517f08c379a00000000000000000000000000000000000000000000000000000000081526004016101c2906106fe565b60405180910390fd5b60405180604001604052803373ffffffffffffffffffffffffffffffffffffffff1681526020016001151581525060036000600254815260200190815260200160002060008201518160000160006101000a81548173ffffffffffffffffffffffffffffffffffffffff021916908373ffffffffffffffffffffffffffffffffffffffff16021790555060208201518160000160146101000a81548160ff0219169083151502179055509050507fbca45deadd45c39bfcb2d1f41ab2e59a2e8d88d3136653e57909aa0f62653ce7336040516102a7919061075f565b60405180910390a1600260008154809291906102c2906107a9565b9190505550565b60025481565b60015481565b6001544211610319576040517f08c379a00000000000000000000000000000000000000000000000000000000081526004016103109061083d565b60405180910390fd5b60008054906101000a900473ffffffffffffffffffffffffffffffffffffffff1673ffffffffffffffffffffffffffffffffffffffff163373ffffffffffffffffffffffffffffffffffffffff16146103a7576040517f08c379a000000000000000000000000000000000000000000000000000000000815260040161039e906108cf565b60405180910390fd5b60006002546103b4610480565b60001c6103c1919061091e565b905060006003600083815260200190815260200160002060000160009054906101000a900473ffffffffffffffffffffffffffffffffffffffff1690507fb8da1b0c48f64354010c03d6da0395ab8afa6e195dc68d8a02e23ee0ae53cf6f8160405161042d919061075f565b60405180910390a18073ffffffffffffffffffffffffffffffffffffffff166108fc479081150290604051600060405180830381858888f1935050505015801561047b573d6000803e3d6000fd5b505050565b600061ce1073ffffffffffffffffffffffffffffffffffffffff1663dd9272336040516020016104af906109a6565b604051602081830303815290604052805190602001206040518263ffffffff1660e01b81526004016104e191906109d4565b602060405180830381865afa1580156104fe573d6000803e3d6000fd5b505050506040513d601f19601f820116820180604052508101906105229190610a20565b73ffffffffffffffffffffffffffffffffffffffff16635ec01e4d6040518163ffffffff1660e01b8152600401602060405180830381865afa15801561056c573d6000803e3d6000fd5b505050506040513d601f19601f820116820180604052508101906105909190610a79565b905090565b6000819050919050565b6105a881610595565b82525050565b60006020820190506105c3600083018461059f565b92915050565b600082825260208201905092915050565b7f4c6f74746572792068617320656e646564000000000000000000000000000000600082015250565b60006106106011836105c9565b915061061b826105da565b602082019050919050565b6000602082019050818103600083015261063f81610603565b9050919050565b7f496e636f7272656374207469636b657420707269636500000000000000000000600082015250565b600061067c6016836105c9565b915061068782610646565b602082019050919050565b600060208201905081810360008301526106ab8161066f565b9050919050565b7f4f776e65722063616e206e6f7420656e746572206c6f74746572790000000000600082015250565b60006106e8601b836105c9565b91506106f3826106b2565b602082019050919050565b60006020820190508181036000830152610717816106db565b9050919050565b600073ffffffffffffffffffffffffffffffffffffffff82169050919050565b60006107498261071e565b9050919050565b6107598161073e565b82525050565b60006020820190506107746000830184610750565b92915050565b7f4e487b7100000000000000000000000000000000000000000000000000000000600052601160045260246000fd5b60006107b482610595565b91507fffffffffffffffffffffffffffffffffffffffffffffffffffffffffffffffff82036107e6576107e561077a565b5b600182019050919050565b7f4c6f747465727920686173206e6f7420656e6465640000000000000000000000600082015250565b60006108276015836105c9565b9150610832826107f1565b602082019050919050565b600060208201905081810360008301526108568161081a565b9050919050565b7f4f6e6c7920746865206f776e65722063616e2073656c6563742074686520776960008201527f6e6e657200000000000000000000000000000000000000000000000000000000602082015250565b60006108b96024836105c9565b91506108c48261085d565b604082019050919050565b600060208201905081810360008301526108e8816108ac565b9050919050565b7f4e487b7100000000000000000000000000000000000000000000000000000000600052601260045260246000fd5b600061092982610595565b915061093483610595565b925082610944576109436108ef565b5b828206905092915050565b600081905092915050565b7f52616e646f6d0000000000000000000000000000000000000000000000000000600082015250565b600061099060068361094f565b915061099b8261095a565b600682019050919050565b60006109b182610983565b9150819050919050565b6000819050919050565b6109ce816109bb565b82525050565b60006020820190506109e960008301846109c5565b92915050565b600080fd5b6109fd8161073e565b8114610a0857600080fd5b50565b600081519050610a1a816109f4565b92915050565b600060208284031215610a3657610a356109ef565b5b6000610a4484828501610a0b565b91505092915050565b610a56816109bb565b8114610a6157600080fd5b50565b600081519050610a7381610a4d565b92915050565b600060208284031215610a8f57610a8e6109ef565b5b6000610a9d84828501610a64565b9150509291505056fea2646970667358221220d103e5721499cd0494180d72437e6e3f74cb90c8117227ddbec86fe4b000ef1864736f6c63430008110033",
  "linkReferences": {},
  "deployedLinkReferences": {}
}